:020000040000FA
:100000000C9463000C948B000C948B000C94B4043F
:100010000C94B4040C94B4040C948B000C948B00DA
:100020000C948B000C948B000C948B000C948B0024
:100030000C948B000C948B000C948B000C948B0014
:100040000C946A040C948B000C9438040C941204E5
:100050000C948B000C948B000C948B000C948B00F4
:100060000C948B000C948B0000000008000201002F
:100070000003040700000000000000000000000072
:1000800023002600290000000000240027002A0089
:1000900000000000250028002B00040404040404D0
:1000A0000404020202020202030303030303010227
:1000B00004081020408001020408102001020408F6
:1000C00010207805D90711241FBECFEFD8E0DEBF7E
:1000D000CDBF22E0A0E8B1E001C01D92A339B20774
:1000E000E1F711E0A0E0B1E0ECEEF4E102C0059030
:1000F0000D92A038B107D9F710E0C2E6D0E004C0F5
:100100002197FE010E946808C136D107C9F70E94F5
:1001100096060C94690A0C940000AF92BF92CF929D
:10012000DF92EF92FF920F931F93CF93DF936C01B7
:100130007B018B01040F151FEB015E01AE18BF0898
:10014000C017D10759F06991D601ED91FC9101904A
:10015000F081E02DC6010995892B79F7C501DF9162
:10016000CF911F910F91FF90EF90DF90CF90BF90B4
:10017000AF900895FC01538D448D252F30E0842FDE
:1001800090E0821B930B541710F0CF9608950197BF
:100190000895FC01918D828D981761F0A28DAE0FAC
:1001A000BF2FB11D5D968C91928D9F5F9F73928F33
:1001B00090E008958FEF9FEF0895FC01918D828D5F
:1001C000981731F0828DE80FF11D858D90E008952C
:1001D0008FEF9FEF0895FC01918D228D892F90E084
:1001E000805C9F4F821B91098F73992708958DEC36
:1001F00091E00E94EB0021E0892B09F420E0822F9E
:10020000089580E090E0892B29F00E94F700811189
:100210000C9400000895FC01A48DA80FB92FB11D06
:10022000A35ABF4F2C91848D90E001968F7399272C
:10023000848FA689B7892C93A089B1898C9183700A
:1002400080648C93938D848D981306C00288F38903
:10025000E02D80818F7D80830895EF92FF920F9330
:100260001F93CF93DF93EC0181E0888F9B8D8C8D62
:1002700098131AC0E889F989808185FF15C09FB756
:10028000F894EE89FF896083E889F9898081837019
:10029000806480839FBF81E090E0DF91CF911F91C8
:1002A0000F91FF90EF900895F62E0B8D10E00F5FE9
:1002B0001F4F0F731127E02E8C8D8E110CC00FB6BF
:1002C00007FCFACFE889F989808185FFF5CFCE0157
:1002D0000E940B01F1CFEB8DEC0FFD2FF11DE35AC6
:1002E000FF4FF0829FB7F8940B8FEA89FB898081DA
:1002F0008062CFCFCF93DF93EC01888D8823B9F054
:10030000AA89BB89E889F9898C9185FD03C0808120
:1003100086FD0DC00FB607FCF7CF8C9185FFF2CF9D
:10032000808185FFEDCFCE010E940B01E9CFDF91E7
:10033000CF9108953FB7F8948091C5019091C6017F
:10034000A091C701B091C80126B5A89B05C02F3F59
:1003500019F00196A11DB11D3FBFBA2FA92F982FEB
:100360008827BC01CD01620F711D811D911D42E0E6
:10037000660F771F881F991F4A95D1F708958F92AE
:100380009F92AF92BF92CF92DF92EF92FF924B017A
:100390005C010E949A016B017C010E949A016C1918
:1003A0007D098E099F09683E734081059105A8F378
:1003B00021E0821A9108A108B10888EEC80E83E0F6
:1003C000D81EE11CF11C81149104A104B10429F789
:1003D000FF90EF90DF90CF90BF90AF909F908F9065
:1003E00008952091CB013091CC012817390771F481
:1003F0009091C9018091CA01981741F0E091C9011B
:10040000F0E0E058FE4F808190E008958FEF9FEF7D
:1004100008950895EF92FF920F931F93CF93DF9368
:10042000DC015C96ED90FC905D97E114F10479F4A9
:1004300081E090E013969C938E93129790E080E079
:10044000DF91CF911F910F91FF90EF9008955196FA
:10045000ED91FC91529750968C915097982F9095D2
:100460000FB75E962C915E97122F127021FD60954A
:10047000F8942081112319F1282B2083E70121977B
:10048000F1F728E0462F50E0308160FF1AC0382B8A
:100490003083E7012197F1F7BA01759567952150EF
:1004A00089F7112381F08081892380830FBF5C96B7
:1004B0008D919C910197F1F781E090E0C1CF2923C4
:1004C000DCCF3923E5CF9081892BEFCF2091CB0171
:1004D0003091CC012817390771F48091CA0120911D
:1004E000C90190E0805C9F4F821B910960E470E03D
:1004F0000E944008089590E080E008952091CB018B
:100500003091CC0128173907B9F49091C901809135
:10051000CA01981789F0E091C901F0E0E058FE4F58
:1005200080812091C90130E02F5F3F4F2F73332727
:100530002093C90190E008958FEF9FEF089590E018
:1005400080E00895FB0101900020E9F73197AF01A9
:10055000461B570BDC01ED91FC910280F381E02DED
:1005600009940F931F93CF93DF93EC010E94A20293
:100570008C016AE271E0CE010E94A202800F911FFD
:10058000DF91CF911F910F910895CF93DF93EC01ED
:1005900080916A0290916B02009759F020916C0251
:1005A00030916D022C173D0720F081E0DF91CF9153
:1005B0000895BE016F5F7F4F0E949309009789F0F5
:1005C00090936B0280936A02D0936D02C0936C0289
:1005D00020916E0230916F02232B39F7FC011082BB
:1005E000E4CF80E0E3CF90E080E00E94C50220915C
:1005F0006A0230916B02811113C02115310519F087
:10060000C9010E940A0910926B0210926A021092AC
:100610006F0210926E0210926D0210926C02089599
:1006200010926F0210926E0261E571E0C9010C94A4
:10063000620AAF92BF92CF92DF92EF92FF920F9336
:100640001F93CF93DF9300D0CDB7DEB764EF71E097
:1006500080E090E00E94BF018DEC91E00E94EB00F1
:10066000892B09F4C2C08DEC91E00E94C9008983F6
:100670001A8200916E0210916F020F5F1F4FC80126
:100680000E94C502882399F020916A0230916B0282
:1006900080916E0290916F02BE016F5F7F4F820F5B
:1006A000931F0E94620A10936F0200936E020091E2
:1006B0006E0210916F020115110571F2C0906A026D
:1006C000D0906B02F6018081882331F27601C1144B
:1006D000D10409F041C0E0906E02F0906F020091E9
:1006E0006A0210916B02E114F10409F471C06DE229
:1006F00071E0C8010E94590A892B09F069C06FE2B4
:1007000071E080E792E00E94B10264EF71E080E066
:1007100090E00E94BF0169E371E080E792E00E94EF
:10072000B10264EF71E080E090E00E94BF0162E5F9
:1007300071E080E792E00E94B10264EF71E080E036
:1007400090E00E94BF016AE180E792E00E940A0205
:100750000E94F30281CF75015701FFEFAF1ABF0A64
:10076000F7018081082E000C990B0E94FD07892B50
:1007700091F7015011090C0D1D1DF8018081082E03
:10078000000C990B0E94FD07892B31F00E151F05F7
:1007900018F001501109F1CFA8014F5F5F4F4E19BA
:1007A0005F0950936F0240936E02CE14DF0420F471
:1007B000B701C6010E94500AE0916A02F0916B02F3
:1007C00080916E0290916F02E80FF91F108283CF23
:1007D000A701B80180E792E00E948D0061E571E019
:1007E00080E792E00E94B102B3CF80E792E00E94DE
:1007F0006602892B51F080E792E00E947E02682F0A
:100800008DEC91E00E942D01F0CF0F900F90DF91C1
:10081000CF911F910F91FF90EF90DF90CF90BF90FD
:10082000AF9008951F920F920FB60F9211242F933D
:100830003F934F935F936F937F938F939F93AF9368
:10084000BF93EF93FF938DEC91E00E940B01FF911A
:10085000EF91BF91AF919F918F917F916F915F9138
:100860004F913F912F910F900FBE0F901F901895B1
:100870001F920F920FB60F9211242F938F939F9375
:10088000EF93FF93E091DD01F091DE018081E09133
:10089000E301F091E40182FD1BC090818091E601AB
:1008A0008F5F8F732091E701821741F0E091E6019D
:1008B000F0E0E353FE4F958F8093E601FF91EF91B7
:1008C0009F918F912F910F900FBE0F901F901895B1
:1008D0008081F4CF1F920F920FB60F9211242F93A5
:1008E0003F938F939F93AF93BF938091C10190915A
:1008F000C201A091C301B091C4013091C00123E0B5
:10090000230F2D3758F50196A11DB11D2093C0016D
:100910008093C1019093C201A093C301B093C4011D
:100920008091C5019091C601A091C701B091C80105
:100930000196A11DB11D8093C5019093C601A0939E
:10094000C701B093C801BF91AF919F918F913F9123
:100950002F910F900FBE0F901F90189526E8230F30
:100960000296A11DB11DD2CF1F920F920FB60F920A
:1009700011242F933F934F935F936F937F938F93A4
:100980009F93AF93BF93EF93FF93E091CB01F091CF
:10099000CC01309749F0A685B7858585968D91FF66
:1009A00014C09C918923A1F4FF91EF91BF91AF9165
:1009B0009F918F917F916F915F914F913F912F9177
:1009C0000F900FBE0F901F9018959C91892361F78F
:1009D000A389B4899C918589809589238C93868984
:1009E00097890197F1F7608D718DA685B78555853B
:1009F00038E020E0CB010197F1F7822F90E0959548
:100A00008795282F4C91452309F02068315091F7A4
:100A1000868D81FD20958091CA0190E001968F73AB
:100A200099273091C901381799F0A091CA01B0E017
:100A3000A058BE4F2C938093CA01828D938D01974D
:100A4000F1F7A389B4898C919589892B8C93ACCFCC
:100A5000868D8160868FF1CF90E0FC01E859FF4FD1
:100A60002491FC01E255FF4F3491FC01E656FF4F03
:100A7000E491EE23C9F0222339F0233001F1A8F4E8
:100A8000213019F1223029F1F0E0EE0FFF1FE0577D
:100A9000FF4FA591B4918FB7F894EC91611126C0E6
:100AA00030953E233C938FBF08952730A9F028301E
:100AB000C9F0243049F7809180008F7D03C0809178
:100AC00080008F7780938000DFCF84B58F7784BDDF
:100AD000DBCF84B58F7DFBCF8091B0008F77809383
:100AE000B000D2CF8091B0008F7DF9CF3E2BDACF0E
:100AF0000F931F93CF93DF931092D0011092CF01E9
:100B000088EE93E0A0E0B0E08093D1019093D20111
:100B1000A093D301B093D4012AE031E03093CE0109
:100B20002093CD0125EC30E03093DA012093D901F8
:100B300024EC30E03093DC012093DB0120EC30E04A
:100B40003093DE012093DD0121EC30E03093E001B1
:100B50002093DF0122EC30E03093E2012093E101A9
:100B600026EC30E03093E4012093E3011092E6019B
:100B70001092E7011092E8011092E90110927302BD
:100B8000109272028093740290937502A093760281
:100B9000B09377028CE191E09093710280937002A0
:100BA0001092870210928602109289021092880297
:100BB00010928B0210928A0210928D0210928C0277
:100BC00060918E026E7F6D7F60938E02669561707C
:100BD00081E068278AE00E942C0548EB50E0FA018A
:100BE000649184EA90E0FC012491222399F030E0A2
:100BF000220F331FF901EA57FF4FA591B491F90174
:100C0000E057FF4F259134912FB7F8943C91632B17
:100C10006C932FBFFA01449140938002FC018491B0
:100C2000E82FF0E0EE0FFF1FE057FF4F8591949102
:100C3000909382028093810207EB10E0F8012491E7
:100C4000C3EAD0E0FE0184918823C9F090E0880FC8
:100C5000991FFC01EA57FF4FA591B491FC01E057A1
:100C6000FF4F459154913FB7F8949C91822F809506
:100C700098239C93FA019081892380833FBF8091C0
:100C80008E0281FD04C061E089E00E942C0589E0AC
:100C900080937C02F801049100937D02FE01C491CF
:100CA000EC2FF0E0EE0FFF1FE458FF4F8591949179
:100CB00090937F0280937E0210926B0210926A02E0
:100CC00010926D0210926C0210926F0210926E02DE
:100CD00090E080E00E94C50220916A0230916B0290
:100CE000811117C02115310519F0C9010E940A09A7
:100CF00010926B0210926A0210926F0210926E02B2
:100D000010926D0210926C02DF91CF911F910F91A2
:100D1000089510926F0210926E0261E571E0C901B0
:100D2000DF91CF911F910F910C94620A789484B552
:100D3000826084BD84B5816084BD85B5826085BDD7
:100D400085B5816085BD80916E00816080936E0065
:100D50001092810080918100826080938100809157
:100D60008100816080938100809180008160809308
:100D700080008091B10084608093B1008091B000C8
:100D800081608093B00080917A00846080937A00C3
:100D900080917A00826080937A0080917A008160ED
:100DA00080937A0080917A00806880937A00109214
:100DB000C10010928B0210928A0210928902109246
:100DC000880210928702109286028DE991E090933A
:100DD0008D0280938C0290917C02963108F047C07E
:100DE0002DEB30E030938702209386022BE931E02F
:100DF00030938902209388022CE231E030938B02F9
:100E000020938A022091680084E0983048F031E015
:100E10009E3008F430E081E001C0880F3A95EAF78F
:100E2000822B809368002DE630E0983050F02BE65E
:100E300030E09E3030F02CE630E0963110F030E0BB
:100E400020E03093840220938302292F30E09830F1
:100E500008F0A2C081E001C0880F9A95EAF780935C
:100E6000850280918C0290918D020197F1F780911B
:100E70008A0290918B02892B49F1E091CB01F0918C
:100E8000CC0182E0E037F80709F1309739F0A38907
:100E9000B4899C918589809589238C9380918E0259
:100EA0008E7F80938E021092CA011092C90180E752
:100EB00092E09093CC018093CB01E0918302F0917A
:100EC0008402808190918502892B8083E091DD01ED
:100ED000F091DE0182E08083E091D901F091DA01A6
:100EE0001082E091DB01F091DC018FEC80831092A5
:100EF000E501E091E101F091E20186E08083E0917B
:100F0000DF01F091E001808180618083E091DF0169
:100F1000F091E001808188608083E091DF01F091B1
:100F2000E001808180688083E091DF01F091E00141
:100F300080818F7D80836AE571E08DEC91E00E9475
:100F4000B10268EE73E080E090E00E94BF016AE6C3
:100F500071E080E792E00E94B1020E9419036FE203
:100F600071E080E792E00E94B1020E9419036DE6F1
:100F700071E080E792E00E94B1020E941903C0E094
:100F8000D0E00E9419032097E1F30E94F700882324
:100F9000C1F30E940000F5CF9E3040F42850310983
:100FA00081E001C0880F2A95EAF759CF2E50310908
:100FB000F7CF80916A0290916B02009711F00E9426
:100FC0000A098CE191E09093710280937002809104
:100FD000CB019091CC018057924071F4E091830253
:100FE000F09184029081809185028095892380838D
:100FF0001092CC011092CB01089591110C94060827
:10100000803219F089508550C8F7089599278827AC
:1010100008952F923F924F925F926F927F928F929C
:101020009F92AF92BF92CF92DF92EF92FF920F9377
:101030001F93CF93DF93CDB7DEB7CA1BDB0B0FB681
:10104000F894DEBF0FBECDBF09942A88398848883E
:101050005F846E847D848C849B84AA84B984C884D4
:10106000DF80EE80FD800C811B81AA81B981CE0FCB
:10107000D11D0FB6F894DEBF0FBECDBFED010895B0
:1010800097FB072E16F4009407D077FD09D00E9435
:10109000540807FC05D03EF4909581959F4F089524
:1010A000709561957F4F0895AA1BBB1B51E107C046
:1010B000AA1FBB1FA617B70710F0A61BB70B881FE8
:1010C000991F5A95A9F780959095BC01CD01089577
:1010D000EE0FFF1F0590F491E02D09940F931F93DD
:1010E000CF93DF938230910510F482E090E0E0919D
:1010F0009102F091920230E020E0B0E0A0E0309761
:1011000099F42115310509F44AC0281B390B243004
:101110003105D8F58A819B816115710589F1FB0143
:1011200093838283FE0111C040815181028113812A
:1011300048175907E0F04817590799F4109761F0DC
:1011400012960C93129713961C933296CF01DF914F
:10115000CF911F910F9108950093910210939202E5
:10116000F4CF2115310551F04217530738F0A9018A
:10117000DB019A01BD01DF01F801C1CFEF01F9CF19
:101180009093920280939102CDCFFE01E20FF31F64
:10119000819391932250310939832883D7CF2091AD
:1011A0008F0230919002232B41F420910201309163
:1011B00003013093900220938F022091000130911F
:1011C00001012115310541F42DB73EB740910401CD
:1011D00050910501241B350BE0918F02F091900294
:1011E000E217F307A0F42E1B3F0B2817390778F0FE
:1011F000AC014E5F5F4F2417350748F04E0F5F1F5D
:101200005093900240938F02819391939FCFF0E08F
:10121000E0E09CCFCF93DF930097E9F0FC01329799
:1012200013821282A0919102B0919202ED0130E0FE
:1012300020E01097A1F420813181820F931F20912B
:101240008F02309190022817390709F061C0F0939E
:101250009002E0938F02DF91CF910895EA01CE17BB
:10126000DF07E8F54A815B819E0141155105B1F721
:10127000E901FB83EA8349915991C40FD51FEC170B
:10128000FD0761F4808191810296840F951FE90129
:1012900099838883828193819B838A83F0E0E0E055
:1012A00012968D919C9113970097B9F52D913C91D1
:1012B0001197CD010296820F931F20918F023091DA
:1012C00090022817390739F6309751F5109292029B
:1012D00010929102B0939002A0938F02BCCFD3835F
:1012E000C28340815181840F951FC817D90761F4CB
:1012F0004E5F5F4F88819981480F591F518340830A
:101300008A819B81938382832115310509F0B0CFB7
:10131000F0939202E09391029ECFFD01DC01C0CFD9
:1013200013821282D7CFB0E0A0E0E9E9F9E00C9493
:101330000B088C01009751F4CB010E946E088C01C0
:10134000C801CDB7DEB7E0E10C942708FC01E60F39
:10135000F71F9C0122503109E217F30708F49DC0E2
:10136000D901CD91DC911197C617D70798F0C530F8
:10137000D10530F3CE0104978617970708F3C61BF3
:10138000D70B2297C193D1936D937C93CF010E9489
:101390000A09D6CF5B01AC1ABD0A4C018C0E9D1E0A
:1013A000A0919102B0919202512C412CF12CE12C90
:1013B000109731F580918F029091900288159905D0
:1013C00009F05CC04616570608F058C0809100012D
:1013D00090910101009741F48DB79EB740910401AF
:1013E00050910501841B950BE817F90708F055C0CB
:1013F000F0939002E0938F02F90171836083A0CF94
:101400008D919C91119712966C90129713967C90E7
:101410001397A815B90559F56C0142E0C40ED11C0B
:10142000CA14DB0420F1AC014A195B09DA011296F7
:10143000159780F06282738251834083D9016D9346
:101440007C93E114F10471F0D7011396FC93EE93B1
:10145000129776CF22968C0F9D1FF901918380837E
:10146000F301EFCFF0939202E093910269CF481617
:10147000590608F42C017D01D3019ACFCB010E94BB
:101480006E087C01009749F0AE01B8010E94500A35
:10149000C8010E940A09870153CF10E000E050CF35
:1014A000FB01DC0102C001900D9241505040D8F781
:1014B0000895FB01DC018D91019080190110D9F391
:1014C000990B0895FB01DC0101900D920020E1F7DA
:1014D000089510E0C2E6D0E004C0FE010E94680852
:1014E0002196C336D107C9F7F894FFCF00009302C5
:1014F0008000000000002D018D00BA007A01EB0091
:10150000C900DD00000000000A028D009F020902F0
:1015100066027E02F1010D0A00530041542B434D37
:1015200047463D310041542B434D47533D222B3913
:1015300031787878787878787878782209004D65ED
:10154000737361676500496E697469616C697A6972
:101550006E672E2E2E0041540041542B434E4D49B0
:0C1560003D312C322C302C302C3000009F
:107E0000112484B714BE81FFF0D085E080938100F7
:107E100082E08093C00088E18093C10086E0809377
:107E2000C20080E18093C4008EE0C9D0259A86E02C
:107E300020E33CEF91E0309385002093840096BBD3
:107E4000B09BFECF1D9AA8958150A9F7CC24DD24C4
:107E500088248394B5E0AB2EA1E19A2EF3E0BF2EE7
:107E6000A2D0813461F49FD0082FAFD0023811F036
:107E7000013811F484E001C083E08DD089C08234E0
:107E800011F484E103C0853419F485E0A6D080C0E4
:107E9000853579F488D0E82EFF2485D0082F10E0AE
:107EA000102F00270E291F29000F111F8ED06801E7
:107EB0006FC0863521F484E090D080E0DECF843638
:107EC00009F040C070D06FD0082F6DD080E0C81688
:107ED00080E7D80618F4F601B7BEE895C0E0D1E017
:107EE00062D089930C17E1F7F0E0CF16F0E7DF06D8
:107EF00018F0F601B7BEE89568D007B600FCFDCFD4
:107F0000A601A0E0B1E02C9130E011968C91119780
:107F100090E0982F8827822B932B1296FA010C0160
:107F200087BEE89511244E5F5F4FF1E0A038BF0790
:107F300051F7F601A7BEE89507B600FCFDCF97BE46
:107F4000E89526C08437B1F42ED02DD0F82E2BD052
:107F50003CD0F601EF2C8F010F5F1F4F84911BD097
:107F6000EA94F801C1F70894C11CD11CFA94CF0C13
:107F7000D11C0EC0853739F428D08EE10CD085E9AC
:107F80000AD08FE07ACF813511F488E018D01DD067
:107F900080E101D065CF982F8091C00085FFFCCF94
:107FA0009093C60008958091C00087FFFCCF809118
:107FB000C00084FD01C0A8958091C6000895E0E648
:107FC000F0E098E1908380830895EDDF803219F02E
:107FD00088E0F5DFFFCF84E1DECF1F93182FE3DFCA
:107FE0001150E9F7F2DF1F91089580E0E8DFEE27F6
:047FF000FF270994CA
:027FFE00040479
:00000001FF
